{
  "_format": "hh-sol-artifact-1",
  "contractName": "P2PExchange",
  "sourceName": "contracts/P2PExchange.sol",
  "abi": [
    {
      "inputs": [],
      "name": "InvalidAmount",
      "type": "error"
    },
    {
      "inputs": [
        {
          "internalType": "uint256",
          "name": "id",
          "type": "uint256"
        }
      ],
      "name": "InvalidOfferId",
      "type": "error"
    },
    {
      "inputs": [
        {
          "internalType": "uint256",
          "name": "id",
          "type": "uint256"
        },
        {
          "internalType": "address",
          "name": "caller",
          "type": "address"
        }
      ],
      "name": "NotOfferMaker",
      "type": "error"
    },
    {
      "inputs": [
        {
          "internalType": "uint256",
          "name": "id",
          "type": "uint256"
        }
      ],
      "name": "OfferNotOpen",
      "type": "error"
    },
    {
      "inputs": [],
      "name": "TransferFailed",
      "type": "error"
    },
    {
      "anonymous": false,
      "inputs": [
        {
          "indexed": true,
          "internalType": "uint256",
          "name": "id",
          "type": "uint256"
        }
      ],
      "name": "OfferCancelled",
      "type": "event"
    },
    {
      "anonymous": false,
      "inputs": [
        {
          "indexed": true,
          "internalType": "uint256",
          "name": "id",
          "type": "uint256"
        },
        {
          "indexed": true,
          "internalType": "address",
          "name": "maker",
          "type": "address"
        },
        {
          "indexed": false,
          "internalType": "address",
          "name": "tokenSell",
          "type": "address"
        },
        {
          "indexed": false,
          "internalType": "uint256",
          "name": "amountSell",
          "type": "uint256"
        },
        {
          "indexed": false,
          "internalType": "address",
          "name": "tokenBuy",
          "type": "address"
        },
        {
          "indexed": false,
          "internalType": "uint256",
          "name": "amountBuy",
          "type": "uint256"
        }
      ],
      "name": "OfferCreated",
      "type": "event"
    },
    {
      "anonymous": false,
      "inputs": [
        {
          "indexed": true,
          "internalType": "uint256",
          "name": "id",
          "type": "uint256"
        },
        {
          "indexed": true,
          "internalType": "address",
          "name": "taker",
          "type": "address"
        }
      ],
      "name": "OfferFilled",
      "type": "event"
    },
    {
      "inputs": [
        {
          "internalType": "uint256",
          "name": "_offerId",
          "type": "uint256"
        }
      ],
      "name": "cancelOffer",
      "outputs": [],
      "stateMutability": "nonpayable",
      "type": "function"
    },
    {
      "inputs": [
        {
          "internalType": "contract IERC20",
          "name": "_tokenSell",
          "type": "address"
        },
        {
          "internalType": "uint256",
          "name": "_amountSell",
          "type": "uint256"
        },
        {
          "internalType": "contract IERC20",
          "name": "_tokenBuy",
          "type": "address"
        },
        {
          "internalType": "uint256",
          "name": "_amountBuy",
          "type": "uint256"
        }
      ],
      "name": "createOffer",
      "outputs": [],
      "stateMutability": "nonpayable",
      "type": "function"
    },
    {
      "inputs": [
        {
          "internalType": "uint256",
          "name": "_offerId",
          "type": "uint256"
        }
      ],
      "name": "fillOffer",
      "outputs": [],
      "stateMutability": "nonpayable",
      "type": "function"
    },
    {
      "inputs": [],
      "name": "getOpenOffers",
      "outputs": [
        {
          "internalType": "uint256[]",
          "name": "",
          "type": "uint256[]"
        }
      ],
      "stateMutability": "view",
      "type": "function"
    },
    {
      "inputs": [
        {
          "internalType": "uint256",
          "name": "",
          "type": "uint256"
        }
      ],
      "name": "offerIdToMaker",
      "outputs": [
        {
          "internalType": "address",
          "name": "",
          "type": "address"
        }
      ],
      "stateMutability": "view",
      "type": "function"
    },
    {
      "inputs": [
        {
          "internalType": "uint256",
          "name": "",
          "type": "uint256"
        }
      ],
      "name": "offers",
      "outputs": [
        {
          "internalType": "uint256",
          "name": "id",
          "type": "uint256"
        },
        {
          "internalType": "address payable",
          "name": "maker",
          "type": "address"
        },
        {
          "internalType": "contract IERC20",
          "name": "tokenSell",
          "type": "address"
        },
        {
          "internalType": "uint256",
          "name": "amountSell",
          "type": "uint256"
        },
        {
          "internalType": "contract IERC20",
          "name": "tokenBuy",
          "type": "address"
        },
        {
          "internalType": "uint256",
          "name": "amountBuy",
          "type": "uint256"
        },
        {
          "internalType": "enum P2PExchange.OfferStatus",
          "name": "status",
          "type": "uint8"
        }
      ],
      "stateMutability": "view",
      "type": "function"
    }
  ],
  "bytecode": "0x6080604052348015600f57600080fd5b506114108061001f6000396000f3fe608060405234801561001057600080fd5b50600436106100625760003560e01c806385dba861146100675780638a72ea6a14610083578063b25d8001146100b9578063d2024b1e146100e9578063ef706adf14610107578063f249152814610123575b600080fd5b610081600480360381019061007c9190610db3565b61013f565b005b61009d60048036038101906100989190610db3565b610483565b6040516100b09796959493929190610f06565b60405180910390f35b6100d360048036038101906100ce9190610db3565b610542565b6040516100e09190610f96565b60405180910390f35b6100f1610575565b6040516100fe919061106f565b60405180910390f35b610121600480360381019061011c9190610db3565b610705565b005b61013d600480360381019061013891906110cf565b6109e7565b005b600080549050811061018857806040517fc1ce508700000000000000000000000000000000000000000000000000000000815260040161017f9190611136565b60405180910390fd5b600080828154811061019d5761019c611151565b5b90600052602060002090600702019050600060028111156101c1576101c0610e8f565b5b8160060160009054906101000a900460ff1660028111156101e5576101e4610e8f565b5b1461022757816040517ff270fad700000000000000000000000000000000000000000000000000000000815260040161021e9190611136565b60405180910390fd5b60008160040160009054906101000a900473ffffffffffffffffffffffffffffffffffffffff1673ffffffffffffffffffffffffffffffffffffffff166323b872dd338460010160009054906101000a900473ffffffffffffffffffffffffffffffffffffffff1685600501546040518463ffffffff1660e01b81526004016102b2939291906111a1565b6020604051808303816000875af11580156102d1573d6000803e3d6000fd5b505050506040513d601f19601f820116820180604052508101906102f59190611210565b90508061032e576040517f90b8ec1800000000000000000000000000000000000000000000000000000000815260040160405180910390fd5b8160020160009054906101000a900473ffffffffffffffffffffffffffffffffffffffff1673ffffffffffffffffffffffffffffffffffffffff1663a9059cbb3384600301546040518363ffffffff1660e01b815260040161039192919061123d565b6020604051808303816000875af11580156103b0573d6000803e3d6000fd5b505050506040513d601f19601f820116820180604052508101906103d49190611210565b90508061040d576040517f90b8ec1800000000000000000000000000000000000000000000000000000000815260040160405180910390fd5b60018260060160006101000a81548160ff0219169083600281111561043557610434610e8f565b5b02179055503373ffffffffffffffffffffffffffffffffffffffff16837f5d765eb51e536f359aef93959a103b41dc14a0c97bbae23d75d39df75a2f136160405160405180910390a3505050565b6000818154811061049357600080fd5b90600052602060002090600702016000915090508060000154908060010160009054906101000a900473ffffffffffffffffffffffffffffffffffffffff16908060020160009054906101000a900473ffffffffffffffffffffffffffffffffffffffff16908060030154908060040160009054906101000a900473ffffffffffffffffffffffffffffffffffffffff16908060050154908060060160009054906101000a900460ff16905087565b60016020528060005260406000206000915054906101000a900473ffffffffffffffffffffffffffffffffffffffff1681565b60606000805b600080549050811015610602576000600281111561059c5761059b610e8f565b5b600082815481106105b0576105af611151565b5b906000526020600020906007020160060160009054906101000a900460ff1660028111156105e1576105e0610e8f565b5b036105f55781806105f190611295565b9250505b808060010191505061057b565b5060008167ffffffffffffffff81111561061f5761061e6112dd565b5b60405190808252806020026020018201604052801561064d5781602001602082028036833780820191505090505b5090506000805b6000805490508110156106fb576000600281111561067557610674610e8f565b5b6000828154811061068957610688611151565b5b906000526020600020906007020160060160009054906101000a900460ff1660028111156106ba576106b9610e8f565b5b036106ee57808383815181106106d3576106d2611151565b5b60200260200101818152505081806106ea90611295565b9250505b8080600101915050610654565b5081935050505090565b600080549050811061074e57806040517fc1ce50870000000000000000000000000000000000000000000000000000000081526004016107459190611136565b60405180910390fd5b600080828154811061076357610762611151565b5b906000526020600020906007020190503373ffffffffffffffffffffffffffffffffffffffff168160010160009054906101000a900473ffffffffffffffffffffffffffffffffffffffff1673ffffffffffffffffffffffffffffffffffffffff16146108095781336040517f7a17b9c300000000000000000000000000000000000000000000000000000000815260040161080092919061130c565b60405180910390fd5b6000600281111561081d5761081c610e8f565b5b8160060160009054906101000a900460ff16600281111561084157610840610e8f565b5b1461088357816040517ff270fad700000000000000000000000000000000000000000000000000000000815260040161087a9190611136565b60405180910390fd5b60008160020160009054906101000a900473ffffffffffffffffffffffffffffffffffffffff1673ffffffffffffffffffffffffffffffffffffffff1663a9059cbb8360010160009054906101000a900473ffffffffffffffffffffffffffffffffffffffff1684600301546040518363ffffffff1660e01b815260040161090c929190611335565b6020604051808303816000875af115801561092b573d6000803e3d6000fd5b505050506040513d601f19601f8201168201806040525081019061094f9190611210565b905080610988576040517f90b8ec1800000000000000000000000000000000000000000000000000000000815260040160405180910390fd5b60028260060160006101000a81548160ff021916908360028111156109b0576109af610e8f565b5b0217905550827fc28b4aed030bfacc245c0501326e1beb8c0ef0d60e4edc21067fdeb52da2a7aa60405160405180910390a2505050565b60008314806109f65750600081145b15610a2d576040517f2c5211c600000000000000000000000000000000000000000000000000000000815260040160405180910390fd5b60008473ffffffffffffffffffffffffffffffffffffffff166323b872dd3330876040518463ffffffff1660e01b8152600401610a6c9392919061135e565b6020604051808303816000875af1158015610a8b573d6000803e3d6000fd5b505050506040513d601f19601f82011682018060405250810190610aaf9190611210565b905080610ae8576040517f90b8ec1800000000000000000000000000000000000000000000000000000000815260040160405180910390fd5b60008080549050905060006040518060e001604052808381526020013373ffffffffffffffffffffffffffffffffffffffff1681526020018873ffffffffffffffffffffffffffffffffffffffff1681526020018781526020018673ffffffffffffffffffffffffffffffffffffffff16815260200185815260200160006002811115610b7857610b77610e8f565b5b81525090806001815401808255809150506001900390600052602060002090600702016000909190919091506000820151816000015560208201518160010160006101000a81548173ffffffffffffffffffffffffffffffffffffffff021916908373ffffffffffffffffffffffffffffffffffffffff16021790555060408201518160020160006101000a81548173ffffffffffffffffffffffffffffffffffffffff021916908373ffffffffffffffffffffffffffffffffffffffff1602179055506060820151816003015560808201518160040160006101000a81548173ffffffffffffffffffffffffffffffffffffffff021916908373ffffffffffffffffffffffffffffffffffffffff16021790555060a0820151816005015560c08201518160060160006101000a81548160ff02191690836002811115610cc257610cc1610e8f565b5b02179055505050336001600083815260200190815260200160002060006101000a81548173ffffffffffffffffffffffffffffffffffffffff021916908373ffffffffffffffffffffffffffffffffffffffff1602179055503373ffffffffffffffffffffffffffffffffffffffff16817f95d9da08dabee1c5c31dc55019599a9831d84490d3bdbe8fb0178ae526ce2b4a88888888604051610d689493929190611395565b60405180910390a3505050505050565b600080fd5b6000819050919050565b610d9081610d7d565b8114610d9b57600080fd5b50565b600081359050610dad81610d87565b92915050565b600060208284031215610dc957610dc8610d78565b5b6000610dd784828501610d9e565b91505092915050565b610de981610d7d565b82525050565b600073ffffffffffffffffffffffffffffffffffffffff82169050919050565b6000610e1a82610def565b9050919050565b610e2a81610e0f565b82525050565b6000819050919050565b6000610e55610e50610e4b84610def565b610e30565b610def565b9050919050565b6000610e6782610e3a565b9050919050565b6000610e7982610e5c565b9050919050565b610e8981610e6e565b82525050565b7f4e487b7100000000000000000000000000000000000000000000000000000000600052602160045260246000fd5b60038110610ecf57610ece610e8f565b5b50565b6000819050610ee082610ebe565b919050565b6000610ef082610ed2565b9050919050565b610f0081610ee5565b82525050565b600060e082019050610f1b600083018a610de0565b610f286020830189610e21565b610f356040830188610e80565b610f426060830187610de0565b610f4f6080830186610e80565b610f5c60a0830185610de0565b610f6960c0830184610ef7565b98975050505050505050565b6000610f8082610def565b9050919050565b610f9081610f75565b82525050565b6000602082019050610fab6000830184610f87565b92915050565b600081519050919050565b600082825260208201905092915050565b6000819050602082019050919050565b610fe681610d7d565b82525050565b6000610ff88383610fdd565b60208301905092915050565b6000602082019050919050565b600061101c82610fb1565b6110268185610fbc565b935061103183610fcd565b8060005b838110156110625781516110498882610fec565b975061105483611004565b925050600181019050611035565b5085935050505092915050565b600060208201905081810360008301526110898184611011565b905092915050565b600061109c82610f75565b9050919050565b6110ac81611091565b81146110b757600080fd5b50565b6000813590506110c9816110a3565b92915050565b600080600080608085870312156110e9576110e8610d78565b5b60006110f7878288016110ba565b945050602061110887828801610d9e565b9350506040611119878288016110ba565b925050606061112a87828801610d9e565b91505092959194509250565b600060208201905061114b6000830184610de0565b92915050565b7f4e487b7100000000000000000000000000000000000000000000000000000000600052603260045260246000fd5b600061118b82610e5c565b9050919050565b61119b81611180565b82525050565b60006060820190506111b66000830186610f87565b6111c36020830185611192565b6111d06040830184610de0565b949350505050565b60008115159050919050565b6111ed816111d8565b81146111f857600080fd5b50565b60008151905061120a816111e4565b92915050565b60006020828403121561122657611225610d78565b5b6000611234848285016111fb565b91505092915050565b60006040820190506112526000830185610f87565b61125f6020830184610de0565b9392505050565b7f4e487b7100000000000000000000000000000000000000000000000000000000600052601160045260246000fd5b60006112a082610d7d565b91507fffffffffffffffffffffffffffffffffffffffffffffffffffffffffffffffff82036112d2576112d1611266565b5b600182019050919050565b7f4e487b7100000000000000000000000000000000000000000000000000000000600052604160045260246000fd5b60006040820190506113216000830185610de0565b61132e6020830184610f87565b9392505050565b600060408201905061134a6000830185611192565b6113576020830184610de0565b9392505050565b60006060820190506113736000830186610f87565b6113806020830185610f87565b61138d6040830184610de0565b949350505050565b60006080820190506113aa6000830187610f87565b6113b76020830186610de0565b6113c46040830185610f87565b6113d16060830184610de0565b9594505050505056fea2646970667358221220ff452bc6b14f29ec0e6b466c334e6decfec158bdd95f0687fece6e272110f53764736f6c634300081c0033",
  "linkReferences": {},
  "deployedLinkReferences": {}
}